{
  "contractName": "SimpleStorage",
  "abi": [
    {
      "inputs": [
        {
          "internalType": "uint256",
          "name": "id",
          "type": "uint256"
        },
        {
          "internalType": "string",
          "name": "value",
          "type": "string"
        }
      ],
      "name": "setData",
      "outputs": [],
      "stateMutability": "nonpayable",
      "type": "function"
    },
    {
      "inputs": [
        {
          "internalType": "uint256",
          "name": "id",
          "type": "uint256"
        }
      ],
      "name": "getData",
      "outputs": [
        {
          "internalType": "string",
          "name": "",
          "type": "string"
        }
      ],
      "stateMutability": "view",
      "type": "function"
    },
    {
      "inputs": [
        {
          "internalType": "uint256",
          "name": "id",
          "type": "uint256"
        }
      ],
      "name": "deleteData",
      "outputs": [],
      "stateMutability": "nonpayable",
      "type": "function"
    }
  ],
  "bytecode": "0x608060405234801561000f575f80fd5b506107818061001d5f395ff3fe608060405234801561000f575f80fd5b506004361061003f575f3560e01c80630178fe3f1461004357806318562dae146100735780634fe8b4c11461008f575b5f80fd5b61005d60048036038101906100589190610227565b6100ab565b60405161006a91906102dc565b60405180910390f35b61008d60048036038101906100889190610428565b61014b565b005b6100a960048036038101906100a49190610227565b61016d565b005b60605f808381526020019081526020015f2080546100c8906104af565b80601f01602080910402602001604051908101604052809291908181526020018280546100f4906104af565b801561013f5780601f106101165761010080835404028352916020019161013f565b820191905f5260205f20905b81548152906001019060200180831161012257829003601f168201915b50505050509050919050565b805f808481526020019081526020015f209081610168919061067c565b505050565b5f808281526020019081526020015f205f610188919061018b565b50565b508054610197906104af565b5f825580601f106101a857506101c5565b601f0160209004905f5260205f20908101906101c491906101c8565b5b50565b5b808211156101df575f815f9055506001016101c9565b5090565b5f604051905090565b5f80fd5b5f80fd5b5f819050919050565b610206816101f4565b8114610210575f80fd5b50565b5f81359050610221816101fd565b92915050565b5f6020828403121561023c5761023b6101ec565b5b5f61024984828501610213565b91505092915050565b5f81519050919050565b5f82825260208201905092915050565b5f5b8381101561028957808201518184015260208101905061026e565b5f8484015250505050565b5f601f19601f8301169050919050565b5f6102ae82610252565b6102b8818561025c565b93506102c881856020860161026c565b6102d181610294565b840191505092915050565b5f6020820190508181035f8301526102f481846102a4565b905092915050565b5f80fd5b5f80fd5b7f4e487b71000000000000000000000000000000000000000000000000000000005f52604160045260245ffd5b61033a82610294565b810181811067ffffffffffffffff8211171561035957610358610304565b5b80604052505050565b5f61036b6101e3565b90506103778282610331565b919050565b5f67ffffffffffffffff82111561039657610395610304565b5b61039f82610294565b9050602081019050919050565b828183375f83830152505050565b5f6103cc6103c78461037c565b610362565b9050828152602081018484840111156103e8576103e7610300565b5b6103f38482856103ac565b509392505050565b5f82601f83011261040f5761040e6102fc565b5b813561041f8482602086016103ba565b91505092915050565b5f806040838503121561043e5761043d6101ec565b5b5f61044b85828601610213565b925050602083013567ffffffffffffffff81111561046c5761046b6101f0565b5b610478858286016103fb565b9150509250929050565b7f4e487b71000000000000000000000000000000000000000000000000000000005f52602260045260245ffd5b5f60028204905060018216806104c657607f821691505b6020821081036104d9576104d8610482565b5b50919050565b5f819050815f5260205f209050919050565b5f6020601f8301049050919050565b5f82821b905092915050565b5f6008830261053b7fffffffffffffffffffffffffffffffffffffffffffffffffffffffffffffffff82610500565b6105458683610500565b95508019841693508086168417925050509392505050565b5f819050919050565b5f61058061057b610576846101f4565b61055d565b6101f4565b9050919050565b5f819050919050565b61059983610566565b6105ad6105a582610587565b84845461050c565b825550505050565b5f90565b6105c16105b5565b6105cc818484610590565b505050565b5b818110156105ef576105e45f826105b9565b6001810190506105d2565b5050565b601f82111561063457610605816104df565b61060e846104f1565b8101602085101561061d578190505b610631610629856104f1565b8301826105d1565b50505b505050565b5f82821c905092915050565b5f6106545f1984600802610639565b1980831691505092915050565b5f61066c8383610645565b9150826002028217905092915050565b61068582610252565b67ffffffffffffffff81111561069e5761069d610304565b5b6106a882546104af565b6106b38282856105f3565b5f60209050601f8311600181146106e4575f84156106d2578287015190505b6106dc8582610661565b865550610743565b601f1984166106f2866104df565b5f5b82811015610719578489015182556001820191506020850194506020810190506106f4565b868310156107365784890151610732601f891682610645565b8355505b6001600288020188555050505b50505050505056fea2646970667358221220dc014728fa53e200d93317a74cf45391e78927b68075a7c407eb30f3cbed465b64736f6c63430008150033",
  "immutableReferences": {},
  "source": "// SimpleStorage.sol\npragma solidity ^0.8.0;\n\ncontract SimpleStorage {\n    mapping(uint256 => string) private data;\n\n    function setData(uint256 id, string memory value) public {\n        data[id] = value;\n    }\n\n    function getData(uint256 id) public view returns (string memory) {\n        return data[id];\n    }\n\n    function deleteData(uint256 id) public {\n        delete data[id];\n    }\n}\n",
  "sourcePath": "C:\\Users\\medam\\Desktop\\Solidity\\PythonFlaskSolidityTuffle\\server\\Scripts\\contracts\\SimpleStorage.sol",
  "compiler": {
    "name": "solc",
    "version": "0.8.21+commit.d9974bed.Emscripten.clang"
  },
  "schemaVersion": "3.4.16",
  "updatedAt": "2023-12-14T16:36:20.284Z",
  "devdoc": {
    "kind": "dev",
    "methods": {},
    "version": 1
  },
  "userdoc": {
    "kind": "user",
    "methods": {},
    "version": 1
  }
}